{
  "_format": "hh-sol-artifact-1",
  "contractName": "MetronionSale",
  "sourceName": "contracts/MetronionSale.sol",
  "abi": [
    {
      "inputs": [
        {
          "internalType": "contract IMetronionNFT",
          "name": "_nftContract",
          "type": "address"
        },
        {
          "internalType": "uint256",
          "name": "_versionId",
          "type": "uint256"
        },
        {
          "internalType": "uint256",
          "name": "_maxWhitelistSize",
          "type": "uint256"
        },
        {
          "internalType": "uint64",
          "name": "_privateTime",
          "type": "uint64"
        },
        {
          "internalType": "uint64",
          "name": "_publicTime",
          "type": "uint64"
        },
        {
          "internalType": "uint64",
          "name": "_endTime",
          "type": "uint64"
        }
      ],
      "stateMutability": "nonpayable",
      "type": "constructor"
    },
    {
      "anonymous": false,
      "inputs": [
        {
          "indexed": true,
          "internalType": "address",
          "name": "buyer",
          "type": "address"
        },
        {
          "indexed": false,
          "internalType": "uint256",
          "name": "versionId",
          "type": "uint256"
        },
        {
          "indexed": false,
          "internalType": "uint256",
          "name": "totalWeiPaid",
          "type": "uint256"
        }
      ],
      "name": "OwnerBought",
      "type": "event"
    },
    {
      "anonymous": false,
      "inputs": [
        {
          "indexed": true,
          "internalType": "address",
          "name": "previousOwner",
          "type": "address"
        },
        {
          "indexed": true,
          "internalType": "address",
          "name": "newOwner",
          "type": "address"
        }
      ],
      "name": "OwnershipTransferred",
      "type": "event"
    },
    {
      "anonymous": false,
      "inputs": [
        {
          "indexed": false,
          "internalType": "address",
          "name": "account",
          "type": "address"
        }
      ],
      "name": "Paused",
      "type": "event"
    },
    {
      "anonymous": false,
      "inputs": [
        {
          "indexed": true,
          "internalType": "address",
          "name": "buyer",
          "type": "address"
        },
        {
          "indexed": false,
          "internalType": "uint256",
          "name": "versionId",
          "type": "uint256"
        },
        {
          "indexed": false,
          "internalType": "uint256",
          "name": "totalWeiPaid",
          "type": "uint256"
        }
      ],
      "name": "PrivateBought",
      "type": "event"
    },
    {
      "anonymous": false,
      "inputs": [
        {
          "indexed": true,
          "internalType": "address",
          "name": "buyer",
          "type": "address"
        },
        {
          "indexed": false,
          "internalType": "uint256",
          "name": "versionId",
          "type": "uint256"
        },
        {
          "indexed": false,
          "internalType": "uint256",
          "name": "totalWeiPaid",
          "type": "uint256"
        }
      ],
      "name": "PublicBought",
      "type": "event"
    },
    {
      "anonymous": false,
      "inputs": [
        {
          "indexed": false,
          "internalType": "address",
          "name": "from",
          "type": "address"
        },
        {
          "indexed": false,
          "internalType": "uint256",
          "name": "amount",
          "type": "uint256"
        }
      ],
      "name": "ReceiveETH",
      "type": "event"
    },
    {
      "anonymous": false,
      "inputs": [
        {
          "indexed": false,
          "internalType": "address",
          "name": "account",
          "type": "address"
        }
      ],
      "name": "Unpaused",
      "type": "event"
    },
    {
      "anonymous": false,
      "inputs": [
        {
          "indexed": false,
          "internalType": "contract IERC20",
          "name": "token",
          "type": "address"
        },
        {
          "indexed": false,
          "internalType": "bool",
          "name": "isWhitelist",
          "type": "bool"
        }
      ],
      "name": "UpdateWhitelistToken",
      "type": "event"
    },
    {
      "anonymous": false,
      "inputs": [
        {
          "indexed": false,
          "internalType": "uint256",
          "name": "versionId",
          "type": "uint256"
        },
        {
          "indexed": false,
          "internalType": "address",
          "name": "account",
          "type": "address"
        },
        {
          "indexed": false,
          "internalType": "bool",
          "name": "isWhitelisted",
          "type": "bool"
        }
      ],
      "name": "UpdateWhitelistedAddress",
      "type": "event"
    },
    {
      "anonymous": false,
      "inputs": [
        {
          "indexed": true,
          "internalType": "address",
          "name": "recipient",
          "type": "address"
        },
        {
          "indexed": false,
          "internalType": "uint256",
          "name": "amount",
          "type": "uint256"
        }
      ],
      "name": "WithdrawSaleFunds",
      "type": "event"
    },
    {
      "anonymous": false,
      "inputs": [
        {
          "indexed": false,
          "internalType": "contract IERC20",
          "name": "token",
          "type": "address"
        },
        {
          "indexed": false,
          "internalType": "uint256",
          "name": "amount",
          "type": "uint256"
        }
      ],
      "name": "WithdrawToken",
      "type": "event"
    },
    {
      "inputs": [],
      "name": "CAP_OWNER_INITIAL_MINT",
      "outputs": [
        {
          "internalType": "uint64",
          "name": "",
          "type": "uint64"
        }
      ],
      "stateMutability": "view",
      "type": "function"
    },
    {
      "inputs": [],
      "name": "CAP_PER_ADDRESS",
      "outputs": [
        {
          "internalType": "uint64",
          "name": "",
          "type": "uint64"
        }
      ],
      "stateMutability": "view",
      "type": "function"
    },
    {
      "inputs": [],
      "name": "CAP_PER_PRIVATE_ADDRESS",
      "outputs": [
        {
          "internalType": "uint64",
          "name": "",
          "type": "uint64"
        }
      ],
      "stateMutability": "view",
      "type": "function"
    },
    {
      "inputs": [],
      "name": "SALE_PRICE",
      "outputs": [
        {
          "internalType": "uint256",
          "name": "",
          "type": "uint256"
        }
      ],
      "stateMutability": "view",
      "type": "function"
    },
    {
      "inputs": [
        {
          "internalType": "uint256",
          "name": "versionId",
          "type": "uint256"
        },
        {
          "internalType": "uint64",
          "name": "amount",
          "type": "uint64"
        }
      ],
      "name": "buy",
      "outputs": [],
      "stateMutability": "payable",
      "type": "function"
    },
    {
      "inputs": [
        {
          "internalType": "uint256",
          "name": "versionId",
          "type": "uint256"
        }
      ],
      "name": "countWhitelistedGroup",
      "outputs": [
        {
          "internalType": "uint256",
          "name": "",
          "type": "uint256"
        }
      ],
      "stateMutability": "view",
      "type": "function"
    },
    {
      "inputs": [
        {
          "internalType": "uint256",
          "name": "versionId",
          "type": "uint256"
        }
      ],
      "name": "getSaleConfig",
      "outputs": [
        {
          "components": [
            {
              "internalType": "uint64",
              "name": "privateTime",
              "type": "uint64"
            },
            {
              "internalType": "uint64",
              "name": "publicTime",
              "type": "uint64"
            },
            {
              "internalType": "uint64",
              "name": "endTime",
              "type": "uint64"
            }
          ],
          "internalType": "struct IMetronionSale.SaleConfig",
          "name": "config",
          "type": "tuple"
        }
      ],
      "stateMutability": "view",
      "type": "function"
    },
    {
      "inputs": [
        {
          "internalType": "uint256",
          "name": "versionId",
          "type": "uint256"
        }
      ],
      "name": "getSaleRecord",
      "outputs": [
        {
          "components": [
            {
              "internalType": "uint64",
              "name": "totalSold",
              "type": "uint64"
            },
            {
              "internalType": "uint64",
              "name": "privateSold",
              "type": "uint64"
            },
            {
              "internalType": "uint64",
              "name": "publicSold",
              "type": "uint64"
            },
            {
              "internalType": "uint64",
              "name": "ownerBought",
              "type": "uint64"
            }
          ],
          "internalType": "struct IMetronionSale.SaleRecord",
          "name": "saleRecord",
          "type": "tuple"
        }
      ],
      "stateMutability": "view",
      "type": "function"
    },
    {
      "inputs": [
        {
          "internalType": "uint256",
          "name": "versionId",
          "type": "uint256"
        },
        {
          "internalType": "address",
          "name": "account",
          "type": "address"
        }
      ],
      "name": "getUserRecord",
      "outputs": [
        {
          "components": [
            {
              "internalType": "uint64",
              "name": "privateBought",
              "type": "uint64"
            },
            {
              "internalType": "uint64",
              "name": "publicBought",
              "type": "uint64"
            }
          ],
          "internalType": "struct IMetronionSale.UserRecord",
          "name": "userRecord",
          "type": "tuple"
        }
      ],
      "stateMutability": "view",
      "type": "function"
    },
    {
      "inputs": [
        {
          "internalType": "uint256",
          "name": "versionId",
          "type": "uint256"
        }
      ],
      "name": "getWhitelistedGroup",
      "outputs": [
        {
          "internalType": "address[]",
          "name": "accounts",
          "type": "address[]"
        }
      ],
      "stateMutability": "view",
      "type": "function"
    },
    {
      "inputs": [
        {
          "internalType": "contract IERC20",
          "name": "token",
          "type": "address"
        }
      ],
      "name": "isTokenWithdrawable",
      "outputs": [
        {
          "internalType": "bool",
          "name": "",
          "type": "bool"
        }
      ],
      "stateMutability": "view",
      "type": "function"
    },
    {
      "inputs": [
        {
          "internalType": "uint256",
          "name": "versionId",
          "type": "uint256"
        },
        {
          "internalType": "address",
          "name": "account",
          "type": "address"
        }
      ],
      "name": "isWhitelistedAddress",
      "outputs": [
        {
          "internalType": "bool",
          "name": "",
          "type": "bool"
        }
      ],
      "stateMutability": "view",
      "type": "function"
    },
    {
      "inputs": [
        {
          "internalType": "uint256",
          "name": "",
          "type": "uint256"
        }
      ],
      "name": "maxWhitelistSize",
      "outputs": [
        {
          "internalType": "uint256",
          "name": "",
          "type": "uint256"
        }
      ],
      "stateMutability": "view",
      "type": "function"
    },
    {
      "inputs": [],
      "name": "nftContract",
      "outputs": [
        {
          "internalType": "contract IMetronionNFT",
          "name": "",
          "type": "address"
        }
      ],
      "stateMutability": "view",
      "type": "function"
    },
    {
      "inputs": [],
      "name": "owner",
      "outputs": [
        {
          "internalType": "address",
          "name": "",
          "type": "address"
        }
      ],
      "stateMutability": "view",
      "type": "function"
    },
    {
      "inputs": [],
      "name": "pause",
      "outputs": [],
      "stateMutability": "nonpayable",
      "type": "function"
    },
    {
      "inputs": [],
      "name": "paused",
      "outputs": [
        {
          "internalType": "bool",
          "name": "",
          "type": "bool"
        }
      ],
      "stateMutability": "view",
      "type": "function"
    },
    {
      "inputs": [],
      "name": "renounceOwnership",
      "outputs": [],
      "stateMutability": "nonpayable",
      "type": "function"
    },
    {
      "inputs": [
        {
          "internalType": "address",
          "name": "newOwner",
          "type": "address"
        }
      ],
      "name": "transferOwnership",
      "outputs": [],
      "stateMutability": "nonpayable",
      "type": "function"
    },
    {
      "inputs": [],
      "name": "unpause",
      "outputs": [],
      "stateMutability": "nonpayable",
      "type": "function"
    },
    {
      "inputs": [
        {
          "internalType": "uint256",
          "name": "versionId",
          "type": "uint256"
        },
        {
          "internalType": "uint256",
          "name": "maxSize",
          "type": "uint256"
        }
      ],
      "name": "updateMaxWhitelistSize",
      "outputs": [],
      "stateMutability": "nonpayable",
      "type": "function"
    },
    {
      "inputs": [
        {
          "internalType": "contract IERC20[]",
          "name": "listTokens",
          "type": "address[]"
        },
        {
          "internalType": "bool",
          "name": "isWhitelist",
          "type": "bool"
        }
      ],
      "name": "updateWhitelistTokens",
      "outputs": [],
      "stateMutability": "nonpayable",
      "type": "function"
    },
    {
      "inputs": [
        {
          "internalType": "uint256",
          "name": "versionId",
          "type": "uint256"
        },
        {
          "internalType": "address[]",
          "name": "accounts",
          "type": "address[]"
        },
        {
          "internalType": "bool",
          "name": "isWhitelisted",
          "type": "bool"
        }
      ],
      "name": "updateWhitelistedGroup",
      "outputs": [],
      "stateMutability": "nonpayable",
      "type": "function"
    },
    {
      "inputs": [
        {
          "internalType": "contract IERC20",
          "name": "",
          "type": "address"
        }
      ],
      "name": "whitelistTokens",
      "outputs": [
        {
          "internalType": "bool",
          "name": "",
          "type": "bool"
        }
      ],
      "stateMutability": "view",
      "type": "function"
    },
    {
      "inputs": [
        {
          "internalType": "address payable",
          "name": "recipient",
          "type": "address"
        },
        {
          "internalType": "uint256",
          "name": "amount",
          "type": "uint256"
        }
      ],
      "name": "withdrawSaleFunds",
      "outputs": [],
      "stateMutability": "nonpayable",
      "type": "function"
    },
    {
      "inputs": [
        {
          "internalType": "contract IERC20",
          "name": "token",
          "type": "address"
        },
        {
          "internalType": "uint256",
          "name": "amount",
          "type": "uint256"
        }
      ],
      "name": "withdrawToken",
      "outputs": [],
      "stateMutability": "nonpayable",
      "type": "function"
    },
    {
      "stateMutability": "payable",
      "type": "receive"
    }
  ],
  "bytecode": "0x60a06040523480156200001157600080fd5b50604051620026f6380380620026f683398101604081905262000034916200015f565b84846200004133620000f2565b6000918252600260209081526040808420929092556003805460ff191690556001600160a01b0390981660805280516060810182526001600160401b03958616815293851684890190815292851684820190815296825260059097529590952090518154955194518316600160801b02600160801b600160c01b031995841668010000000000000000026001600160801b0319909716919093161794909417929092169190911790915550620001dc565b600080546001600160a01b038381166001600160a01b0319831681178455604051919092169283917f8be0079c531659141344cd1fd0a4f28419497f9722a3daafe3b4186f6b6457e09190a35050565b80516001600160401b03811681146200015a57600080fd5b919050565b60008060008060008060c087890312156200017957600080fd5b86516001600160a01b03811681146200019157600080fd5b6020880151604089015191975095509350620001b06060880162000142565b9250620001c06080880162000142565b9150620001d060a0880162000142565b90509295509295509295565b6080516124f0620002066000396000818161066f01528181610a1a01526113e001526124f06000f3fe6080604052600436106101a55760003560e01c8063715018a6116100e1578063a5121a3f1161008a578063d56d229d11610064578063d56d229d1461065d578063e147a35514610691578063e7dcfc2b146106b1578063f2fde38b146106c757600080fd5b8063a5121a3f146105ee578063b13b76d71461061b578063b579ccf01461064857600080fd5b80638456cb59116100bb5780638456cb59146105875780638da5cb5b1461059c5780639e281a98146105ce57600080fd5b8063715018a6146105365780637f205a741461054b578063833a647f1461056757600080fd5b80633c572aa31161014e578063581c4b6611610128578063581c4b66146104855780635c975abb146104b55780635fb2386e146104cd578063620bb584146104fd57600080fd5b80633c572aa3146103fc5780633f4ba83a1461044357806357ce35961461045857600080fd5b806318d425d11161017f57806318d425d11461031f578063261c912d146103c95780632bfd1b31146103e957600080fd5b806303caaf40146101e9578063105df594146102cf578063144d0ab3146102f157600080fd5b366101e457604080513381523460208201527f830d2d700a97af574b186c80d40429385d24241565b08a7c559ba283a964d9b1910160405180910390a1005b600080fd5b3480156101f557600080fd5b50610283610204366004611ff6565b60408051608081018252600080825260208201819052918101829052606081019190915250600090815260066020908152604091829020825160808101845290546001600160401b038082168352600160401b8204811693830193909352600160801b8104831693820193909352600160c01b90920416606082015290565b6040516102c6919081516001600160401b039081168252602080840151821690830152604080840151821690830152606092830151169181019190915260800190565b60405180910390f35b3480156102db57600080fd5b506102ef6102ea366004612068565b6106e7565b005b3480156102fd57600080fd5b5061031161030c366004611ff6565b610815565b6040519081526020016102c6565b34801561032b57600080fd5b5061039761033a366004611ff6565b604080516060808201835260008083526020808401829052928401819052938452600582529282902082519384018352546001600160401b038082168552600160401b8204811692850192909252600160801b9004169082015290565b6040805182516001600160401b03908116825260208085015182169083015292820151909216908201526060016102c6565b3480156103d557600080fd5b506102ef6103e43660046120d3565b610833565b6102ef6103f73660046120ff565b610972565b34801561040857600080fd5b5061041c61041736600461213b565b610a7b565b6040805182516001600160401b0390811682526020938401511692810192909252016102c6565b34801561044f57600080fd5b506102ef610ad6565b34801561046457600080fd5b50610478610473366004611ff6565b610b28565b6040516102c69190612160565b34801561049157600080fd5b506104a56104a036600461213b565b610be1565b60405190151581526020016102c6565b3480156104c157600080fd5b5060035460ff166104a5565b3480156104d957600080fd5b506104a56104e83660046121ad565b60046020526000908152604090205460ff1681565b34801561050957600080fd5b506104a56105183660046121ad565b6001600160a01b031660009081526004602052604090205460ff1690565b34801561054257600080fd5b506102ef610c01565b34801561055757600080fd5b506103116706f05b59d3b2000081565b34801561057357600080fd5b506102ef6105823660046121ca565b610c53565b34801561059357600080fd5b506102ef610d3a565b3480156105a857600080fd5b506000546001600160a01b03165b6040516001600160a01b0390911681526020016102c6565b3480156105da57600080fd5b506102ef6105e93660046120d3565b610d8a565b3480156105fa57600080fd5b50610311610609366004611ff6565b60026020526000908152604090205481565b34801561062757600080fd5b50610630600581565b6040516001600160401b0390911681526020016102c6565b34801561065457600080fd5b50610630600181565b34801561066957600080fd5b506105b67f000000000000000000000000000000000000000000000000000000000000000081565b34801561069d57600080fd5b506102ef6106ac3660046121ec565b6110a0565b3480156106bd57600080fd5b506106306101f481565b3480156106d357600080fd5b506102ef6106e23660046121ad565b6112ed565b6000546001600160a01b031633146107345760405162461bcd60e51b815260206004820181905260248201526000805160206124c483398151915260448201526064015b60405180910390fd5b60005b8281101561080f5781600460008686858181106107565761075661224a565b905060200201602081019061076b91906121ad565b6001600160a01b031681526020810191909152604001600020805460ff19169115159190911790557f7fbaa616b280a21ed024cb6d3276aa1eb42ad40412465a8c252314c8642ce5458484838181106107c6576107c661224a565b90506020020160208101906107db91906121ad565b604080516001600160a01b03909216825284151560208301520160405180910390a18061080781612276565b915050610737565b50505050565b600081815260016020526040812061082c816113bd565b9392505050565b6000546001600160a01b0316331461087b5760405162461bcd60e51b815260206004820181905260248201526000805160206124c4833981519152604482015260640161072b565b6000826001600160a01b03168260405160006040518083038185875af1925050503d80600081146108c8576040519150601f19603f3d011682016040523d82523d6000602084013e6108cd565b606091505b505090508061092a5760405162461bcd60e51b8152602060048201526024808201527f4d6574726f6e696f6e53616c653a2077697468647261772066756e64732066616044820152631a5b195960e21b606482015260840161072b565b826001600160a01b03167f3fec9cbe8c76c2fa9d3757845d57ed0ad0d4d2942b967184d32dc0beb65c3ff08360405161096591815260200190565b60405180910390a2505050565b33803b158061098e57506000546001600160a01b038281169116145b6109da5760405162461bcd60e51b815260206004820181905260248201527f4d6574726f6e696f6e53616c653a206f6e6c7920454f41206f72206f776e6572604482015260640161072b565b6109e58382846113c7565b60405163076a947d60e11b8152600481018490526001600160401b03831660248201526001600160a01b0382811660448301527f00000000000000000000000000000000000000000000000000000000000000001690630ed528fa90606401600060405180830381600087803b158015610a5e57600080fd5b505af1158015610a72573d6000803e3d6000fd5b50505050505050565b60408051808201825260008082526020918201819052848152600782528281206001600160a01b038516825282528290208251808401909352546001600160401b038082168452600160401b90910416908201525b92915050565b6000546001600160a01b03163314610b1e5760405162461bcd60e51b815260206004820181905260248201526000805160206124c4833981519152604482015260640161072b565b610b26611cb3565b565b6000818152600160205260408120606091610b42826113bd565b9050806001600160401b03811115610b5c57610b5c612291565b604051908082528060200260200182016040528015610b85578160200160208202803683370190505b50925060005b81811015610bd957610b9d8382611d4f565b848281518110610baf57610baf61224a565b6001600160a01b039092166020928302919091019091015280610bd181612276565b915050610b8b565b505050919050565b6000828152600160205260408120610bf98184611d5b565b949350505050565b6000546001600160a01b03163314610c495760405162461bcd60e51b815260206004820181905260248201526000805160206124c4833981519152604482015260640161072b565b610b266000611d7d565b6000546001600160a01b03163314610c9b5760405162461bcd60e51b815260206004820181905260248201526000805160206124c4833981519152604482015260640161072b565b600082815260016020526040902081610cb3826113bd565b1115610d275760405162461bcd60e51b815260206004820152603560248201527f57686974656c6973743a2063757272656e742067726f75702073697a6520697360448201527f20626967676572207468656e206e65772073697a650000000000000000000000606482015260840161072b565b5060009182526002602052604090912055565b6000546001600160a01b03163314610d825760405162461bcd60e51b815260206004820181905260248201526000805160206124c4833981519152604482015260640161072b565b610b26611de5565b60035460ff1615610dd05760405162461bcd60e51b815260206004820152601060248201526f14185d5cd8589b194e881c185d5cd95960821b604482015260640161072b565b6000546001600160a01b03163314610e185760405162461bcd60e51b815260206004820181905260248201526000805160206124c4833981519152604482015260640161072b565b6040516370a0823160e01b815230600482015281906001600160a01b038416906370a082319060240160206040518083038186803b158015610e5957600080fd5b505afa158015610e6d573d6000803e3d6000fd5b505050506040513d601f19601f82011682018060405250810190610e9191906122a7565b1015610f055760405162461bcd60e51b815260206004820152602860248201527f546f6b656e576974686472617761626c653a20616d6f756e742065786365656460448201527f2062616c616e6365000000000000000000000000000000000000000000000000606482015260840161072b565b6001600160a01b03821660009081526004602052604090205460ff161515600114610f985760405162461bcd60e51b815260206004820152602b60248201527f546f6b656e576974686472617761626c653a20746f6b656e206973206e6f742060448201527f77686974656c6973746564000000000000000000000000000000000000000000606482015260840161072b565b816001600160a01b03166323b872dd30610fba6000546001600160a01b031690565b6040517fffffffff0000000000000000000000000000000000000000000000000000000060e085901b1681526001600160a01b0392831660048201529116602482015260448101849052606401602060405180830381600087803b15801561102157600080fd5b505af1158015611035573d6000803e3d6000fd5b505050506040513d601f19601f8201168201806040525081019061105991906122c0565b50604080516001600160a01b0384168152602081018390527f992ee874049a42cae0757a765cd7f641b6028cc35c3478bde8330bf417c3a7a9910160405180910390a15050565b6000546001600160a01b031633146110e85760405162461bcd60e51b815260206004820181905260248201526000805160206124c4833981519152604482015260640161072b565b6000848152600160209081526040808320600290925290912054821561116b578084611113846113bd565b61111d91906122dd565b111561116b5760405162461bcd60e51b815260206004820152601d60248201527f57686974656c6973743a20746f6f206d616e7920616464726573736573000000604482015260640161072b565b60005b84811015610a72578380156111af57506111af8686838181106111935761119361224a565b90506020020160208101906111a891906121ad565b8490611e60565b1561122a577fc5fb2d3417659c391e84839f8b229eb825d8d0f7b53ea99647937b66ea5b4757878787848181106111e8576111e861224a565b90506020020160208101906111fd91906121ad565b604080519283526001600160a01b03909116602083015260019082015260600160405180910390a16112db565b8315801561126457506112648686838181106112485761124861224a565b905060200201602081019061125d91906121ad565b8490611e75565b156112db577fc5fb2d3417659c391e84839f8b229eb825d8d0f7b53ea99647937b66ea5b47578787878481811061129d5761129d61224a565b90506020020160208101906112b291906121ad565b604080519283526001600160a01b03909116602083015260009082015260600160405180910390a15b806112e581612276565b91505061116e565b6000546001600160a01b031633146113355760405162461bcd60e51b815260206004820181905260248201526000805160206124c4833981519152604482015260640161072b565b6001600160a01b0381166113b15760405162461bcd60e51b815260206004820152602660248201527f4f776e61626c653a206e6577206f776e657220697320746865207a65726f206160448201527f6464726573730000000000000000000000000000000000000000000000000000606482015260840161072b565b6113ba81611d7d565b50565b6000610ad0825490565b6040516353a6c00760e01b8152600481018490526000907f00000000000000000000000000000000000000000000000000000000000000006001600160a01b0316906353a6c0079060240160006040518083038186803b15801561142a57600080fd5b505afa15801561143e573d6000803e3d6000fd5b505050506040513d6000823e601f3d908101601f19168201604052611466919081019061234d565b604080820151600087815260066020529190912054919250906114939084906001600160401b031661244c565b6001600160401b031611156114ea5760405162461bcd60e51b815260206004820181905260248201527f4d6574726f6e696f6e53616c653a206578636565642062757920616d6f756e74604482015260640161072b565b6000848152600560209081526040808320815160608101835290546001600160401b038082168352600160401b8204811694830194909452600160801b9004909216908201529054349042906001600160a01b03163314156116cb5782604001516001600160401b03168110156115e0576000878152600660205260409020546101f490611589908790600160c01b90046001600160401b031661244c565b6001600160401b031611156115e05760405162461bcd60e51b815260206004820152601f60248201527f4d6574726f6e696f6e53616c653a20657863656564206f776e65722063617000604482015260640161072b565b60008781526006602052604090208054869190601890611611908490600160c01b90046001600160401b031661244c565b82546101009290920a6001600160401b038181021990931691831602179091556000898152600660205260408120805489945090926116529185911661244c565b92506101000a8154816001600160401b0302191690836001600160401b03160217905550856001600160a01b03167f6572890071cbac932382b30df01c6e6a38527876965e3f76818d6a297e5d99ad88846040516116ba929190918252602082015260400190565b60405180910390a250505050505050565b60006116d78888610a7b565b84519091506001600160401b03168210156117345760405162461bcd60e51b815260206004820152601a60248201527f4d6574726f6e696f6e53616c653a206e6f742073746172746564000000000000604482015260640161072b565b83604001516001600160401b03168211156117915760405162461bcd60e51b815260206004820152601960248201527f4d6574726f6e696f6e53616c653a2073616c6520656e64656400000000000000604482015260640161072b565b83516001600160401b031682108015906117b7575083602001516001600160401b031682105b15611a54576117c68888610be1565b61181e5760405162461bcd60e51b8152602060048201526024808201527f4d6574726f6e696f6e53616c653a206e6f742077686974656c697374656420626044820152633abcb2b960e11b606482015260840161072b565b6118396706f05b59d3b200006001600160401b038816612477565b83146118915760405162461bcd60e51b815260206004820152602160248201527f4d6574726f6e696f6e53616c653a20696e76616c696420706169642076616c756044820152606560f81b606482015260840161072b565b80516001906118a190889061244c565b6001600160401b031611156119025760405162461bcd60e51b815260206004820152602160248201527f4d6574726f6e696f6e53616c653a2065786365656420707269766174652063616044820152600760fc1b606482015260840161072b565b60008881526007602090815260408083206001600160a01b038b1684529091528120805488929061193d9084906001600160401b031661244c565b82546101009290920a6001600160401b0381810219909316918316021790915560008a815260066020526040812080548a9450909261197e9185911661244c565b92506101000a8154816001600160401b0302191690836001600160401b0316021790555085600660008a815260200190815260200160002060000160088282829054906101000a90046001600160401b03166119da919061244c565b92506101000a8154816001600160401b0302191690836001600160401b03160217905550866001600160a01b03167fa5e205e2aedf69a8cc205039b2416f6c4de2c274d202762643fd0c1655ef2b078985604051611a42929190918252602082015260400190565b60405180910390a25050505050505050565b83602001516001600160401b03168210158015611a7d575083604001516001600160401b031682105b15611ca957611a9d6706f05b59d3b200006001600160401b038816612477565b8314611af55760405162461bcd60e51b815260206004820152602160248201527f4d6574726f6e696f6e53616c653a20696e76616c696420706169642076616c756044820152606560f81b606482015260840161072b565b6020810151600590611b0890889061244c565b6001600160401b03161115611b5f5760405162461bcd60e51b815260206004820181905260248201527f4d6574726f6e696f6e53616c653a20657863656564207075626c696320636170604482015260640161072b565b60008881526007602090815260408083206001600160a01b038b16845290915290208054879190600890611ba4908490600160401b90046001600160401b031661244c565b82546101009290920a6001600160401b0381810219909316918316021790915560008a815260066020526040812080548a94509092611be59185911661244c565b92506101000a8154816001600160401b0302191690836001600160401b0316021790555085600660008a815260200190815260200160002060000160108282829054906101000a90046001600160401b0316611c41919061244c565b92506101000a8154816001600160401b0302191690836001600160401b03160217905550866001600160a01b03167fbb6fccc04239b090cbe501ab994213815a96218e14a89d381646d0d4de434db58985604051611a42929190918252602082015260400190565b5050505050505050565b60035460ff16611d055760405162461bcd60e51b815260206004820152601460248201527f5061757361626c653a206e6f7420706175736564000000000000000000000000604482015260640161072b565b6003805460ff191690557f5db9ee0a495bf2e6ff9c91a7834c1ba4fdd244a5e8aa4e537bd38aeae4b073aa335b6040516001600160a01b03909116815260200160405180910390a1565b600061082c8383611e8a565b6001600160a01b0381166000908152600183016020526040812054151561082c565b600080546001600160a01b038381167fffffffffffffffffffffffff0000000000000000000000000000000000000000831681178455604051919092169283917f8be0079c531659141344cd1fd0a4f28419497f9722a3daafe3b4186f6b6457e09190a35050565b60035460ff1615611e2b5760405162461bcd60e51b815260206004820152601060248201526f14185d5cd8589b194e881c185d5cd95960821b604482015260640161072b565b6003805460ff191660011790557f62e78cea01bee320cd4e420270b5ea74000d11b0c9f74754ebdbfc544b05a258611d323390565b600061082c836001600160a01b038416611eb4565b600061082c836001600160a01b038416611f03565b6000826000018281548110611ea157611ea161224a565b9060005260206000200154905092915050565b6000818152600183016020526040812054611efb57508154600181810184556000848152602080822090930184905584548482528286019093526040902091909155610ad0565b506000610ad0565b60008181526001830160205260408120548015611fec576000611f27600183612496565b8554909150600090611f3b90600190612496565b9050818114611fa0576000866000018281548110611f5b57611f5b61224a565b9060005260206000200154905080876000018481548110611f7e57611f7e61224a565b6000918252602080832090910192909255918252600188019052604090208390555b8554869080611fb157611fb16124ad565b600190038181906000526020600020016000905590558560010160008681526020019081526020016000206000905560019350505050610ad0565b6000915050610ad0565b60006020828403121561200857600080fd5b5035919050565b60008083601f84011261202157600080fd5b5081356001600160401b0381111561203857600080fd5b6020830191508360208260051b850101111561205357600080fd5b9250929050565b80151581146113ba57600080fd5b60008060006040848603121561207d57600080fd5b83356001600160401b0381111561209357600080fd5b61209f8682870161200f565b90945092505060208401356120b38161205a565b809150509250925092565b6001600160a01b03811681146113ba57600080fd5b600080604083850312156120e657600080fd5b82356120f1816120be565b946020939093013593505050565b6000806040838503121561211257600080fd5b8235915060208301356001600160401b038116811461213057600080fd5b809150509250929050565b6000806040838503121561214e57600080fd5b823591506020830135612130816120be565b6020808252825182820181905260009190848201906040850190845b818110156121a15783516001600160a01b03168352928401929184019160010161217c565b50909695505050505050565b6000602082840312156121bf57600080fd5b813561082c816120be565b600080604083850312156121dd57600080fd5b50508035926020909101359150565b6000806000806060858703121561220257600080fd5b8435935060208501356001600160401b0381111561221f57600080fd5b61222b8782880161200f565b909450925050604085013561223f8161205a565b939692955090935050565b634e487b7160e01b600052603260045260246000fd5b634e487b7160e01b600052601160045260246000fd5b600060001982141561228a5761228a612260565b5060010190565b634e487b7160e01b600052604160045260246000fd5b6000602082840312156122b957600080fd5b5051919050565b6000602082840312156122d257600080fd5b815161082c8161205a565b600082198211156122f0576122f0612260565b500190565b604051608081016001600160401b038111828210171561231757612317612291565b60405290565b604051601f8201601f191681016001600160401b038111828210171561234557612345612291565b604052919050565b6000602080838503121561236057600080fd5b82516001600160401b038082111561237757600080fd5b908401906080828703121561238b57600080fd5b6123936122f5565b825181528383015184820152604083015160408201526060830151828111156123bb57600080fd5b80840193505086601f8401126123d057600080fd5b8251828111156123e2576123e2612291565b6123f4601f8201601f1916860161231d565b9250808352878582860101111561240a57600080fd5b60005b8181101561242857848101860151848201870152850161240d565b818111156124395760008683860101525b5050606081019190915295945050505050565b60006001600160401b0380831681851680830382111561246e5761246e612260565b01949350505050565b600081600019048311821515161561249157612491612260565b500290565b6000828210156124a8576124a8612260565b500390565b634e487b7160e01b600052603160045260246000fdfe4f776e61626c653a2063616c6c6572206973206e6f7420746865206f776e6572a164736f6c6343000809000a",
  "linkReferences": {},
  "deployedLinkReferences": {}
}